{
  "contractName": "Purchase",
  "abi": [
    {
      "constant": false,
      "inputs": [
        {
          "name": "appId",
          "type": "uint256"
        }
      ],
      "name": "buy",
      "outputs": [
        {
          "name": "",
          "type": "uint256"
        }
      ],
      "payable": false,
      "stateMutability": "nonpayable",
      "type": "function"
    },
    {
      "constant": true,
      "inputs": [
        {
          "name": "",
          "type": "uint256"
        }
      ],
      "name": "buyers",
      "outputs": [
        {
          "name": "",
          "type": "address"
        }
      ],
      "payable": false,
      "stateMutability": "view",
      "type": "function"
    },
    {
      "constant": true,
      "inputs": [],
      "name": "getBuyers",
      "outputs": [
        {
          "name": "",
          "type": "address[16]"
        }
      ],
      "payable": false,
      "stateMutability": "view",
      "type": "function"
    }
  ],
  "bytecode": "0x6060604052341561000f57600080fd5b6102dd8061001e6000396000f300606060405260043610610057576000357c0100000000000000000000000000000000000000000000000000000000900463ffffffff168063d96a094a1461005c578063f2aa821814610093578063f64bfaba146100f6575b600080fd5b341561006757600080fd5b61007d6004808035906020019091905050610147565b6040518082815260200191505060405180910390f35b341561009e57600080fd5b6100b460048080359060200190919050506101bc565b604051808273ffffffffffffffffffffffffffffffffffffffff1673ffffffffffffffffffffffffffffffffffffffff16815260200191505060405180910390f35b341561010157600080fd5b6101096101f1565b6040518082601060200280838360005b83811015610134578082015181840152602081019050610119565b5050505090500191505060405180910390f35b600080821015801561015a5750600f8211155b151561016557600080fd5b3360008360108110151561017557fe5b0160006101000a81548173ffffffffffffffffffffffffffffffffffffffff021916908373ffffffffffffffffffffffffffffffffffffffff160217905550819050919050565b6000816010811015156101cb57fe5b016000915054906101000a900473ffffffffffffffffffffffffffffffffffffffff1681565b6101f9610272565b6000601080602002604051908101604052809291908260108015610268576020028201915b8160009054906101000a900473ffffffffffffffffffffffffffffffffffffffff1673ffffffffffffffffffffffffffffffffffffffff168152602001906001019080831161021e575b5050505050905090565b610200604051908101604052806010905b600073ffffffffffffffffffffffffffffffffffffffff1681526020019060019003908161028357905050905600a165627a7a7230582056ce3ff1be7ac282c1fc2b7e93cdc78abe399b2bfb00253a9b39a24e8b761b8d0029",
  "source": "pragma solidity ^0.4.17;\r\n\r\ncontract Purchase {\r\n    address[16] public buyers;\r\n    // Buy a product\r\n    function buy(uint appId) public returns (uint) {\r\n    require(appId >= 0 && appId <= 15);\r\n\r\n    buyers[appId] = msg.sender;\r\n\r\n    return appId;\r\n    }\r\n\r\n    // Retrieving the buyers\r\n    function getBuyers() public view returns (address[16]) {\r\n    return buyers;\r\n    }\r\n}",
  "sourcePath": "C:\\dAppStore\\contracts\\Purchase.sol",
  "compiler": {
    "name": "solc",
    "version": "0.4.18+commit.9cf6e910.Emscripten.clang"
  },
  "schemaVersion": "1.0.1",
  "updatedAt": "2018-05-15T09:53:35.651Z"
}